{
  "_format": "hh-sol-artifact-1",
  "contractName": "UniversalAssetTokenizationPlatform",
  "sourceName": "contracts/UniversalAssetTokenisationPlatform.sol",
  "abi": [
    {
      "inputs": [],
      "stateMutability": "nonpayable",
      "type": "constructor"
    },
    {
      "inputs": [],
      "name": "CreatorAlreadyRegistered",
      "type": "error"
    },
    {
      "inputs": [],
      "name": "InvalidInput",
      "type": "error"
    },
    {
      "inputs": [],
      "name": "NoClaimableRoyalties",
      "type": "error"
    },
    {
      "inputs": [],
      "name": "NoRoyaltiesToDistribute",
      "type": "error"
    },
    {
      "inputs": [],
      "name": "NotCreatorOwner",
      "type": "error"
    },
    {
      "inputs": [],
      "name": "OnlyPlatformOwner",
      "type": "error"
    },
    {
      "inputs": [],
      "name": "ReentrancyGuardReentrantCall",
      "type": "error"
    },
    {
      "inputs": [],
      "name": "TransferFailed",
      "type": "error"
    },
    {
      "inputs": [],
      "name": "ASSET_NFT",
      "outputs": [
        {
          "internalType": "contract AssetNFT",
          "name": "",
          "type": "address"
        }
      ],
      "stateMutability": "view",
      "type": "function"
    },
    {
      "inputs": [],
      "name": "MAX_PLATFORM_FEE",
      "outputs": [
        {
          "internalType": "uint256",
          "name": "",
          "type": "uint256"
        }
      ],
      "stateMutability": "view",
      "type": "function"
    },
    {
      "inputs": [
        {
          "internalType": "uint256",
          "name": "",
          "type": "uint256"
        }
      ],
      "name": "assetRoyaltyBalance",
      "outputs": [
        {
          "internalType": "uint256",
          "name": "",
          "type": "uint256"
        }
      ],
      "stateMutability": "view",
      "type": "function"
    },
    {
      "inputs": [
        {
          "internalType": "uint256",
          "name": "",
          "type": "uint256"
        },
        {
          "internalType": "uint256",
          "name": "",
          "type": "uint256"
        }
      ],
      "name": "assetToVerifiers",
      "outputs": [
        {
          "internalType": "address",
          "name": "",
          "type": "address"
        }
      ],
      "stateMutability": "view",
      "type": "function"
    },
    {
      "inputs": [
        {
          "internalType": "uint256",
          "name": "",
          "type": "uint256"
        }
      ],
      "name": "assets",
      "outputs": [
        {
          "internalType": "uint256",
          "name": "nftTokenId",
          "type": "uint256"
        },
        {
          "internalType": "address",
          "name": "ipId",
          "type": "address"
        },
        {
          "internalType": "uint256",
          "name": "licenseTermsId",
          "type": "uint256"
        },
        {
          "internalType": "address",
          "name": "creator",
          "type": "address"
        },
        {
          "internalType": "enum AssetType",
          "name": "assetType",
          "type": "uint8"
        },
        {
          "internalType": "string",
          "name": "title",
          "type": "string"
        },
        {
          "internalType": "string",
          "name": "description",
          "type": "string"
        },
        {
          "internalType": "string",
          "name": "metadataURI",
          "type": "string"
        },
        {
          "internalType": "address",
          "name": "shareTokenAddress",
          "type": "address"
        },
        {
          "internalType": "uint256",
          "name": "totalRoyaltiesCollected",
          "type": "uint256"
        },
        {
          "internalType": "bool",
          "name": "exists",
          "type": "bool"
        },
        {
          "internalType": "enum VerificationStatus",
          "name": "verificationStatus",
          "type": "uint8"
        },
        {
          "internalType": "uint256",
          "name": "yes_votes",
          "type": "uint256"
        },
        {
          "internalType": "uint256",
          "name": "no_votes",
          "type": "uint256"
        }
      ],
      "stateMutability": "view",
      "type": "function"
    },
    {
      "inputs": [
        {
          "internalType": "uint256",
          "name": "assetId",
          "type": "uint256"
        },
        {
          "internalType": "uint256",
          "name": "shareAmount",
          "type": "uint256"
        }
      ],
      "name": "buyAssetShares",
      "outputs": [],
      "stateMutability": "payable",
      "type": "function"
    },
    {
      "inputs": [
        {
          "internalType": "uint256",
          "name": "assetId",
          "type": "uint256"
        }
      ],
      "name": "claimAllRoyalties",
      "outputs": [],
      "stateMutability": "nonpayable",
      "type": "function"
    },
    {
      "inputs": [
        {
          "internalType": "uint256",
          "name": "assetId",
          "type": "uint256"
        },
        {
          "internalType": "uint256",
          "name": "distributionIndex",
          "type": "uint256"
        }
      ],
      "name": "claimRoyalties",
      "outputs": [],
      "stateMutability": "nonpayable",
      "type": "function"
    },
    {
      "inputs": [
        {
          "internalType": "enum AssetType",
          "name": "assetType",
          "type": "uint8"
        },
        {
          "internalType": "string",
          "name": "title",
          "type": "string"
        },
        {
          "internalType": "string",
          "name": "description",
          "type": "string"
        },
        {
          "internalType": "string",
          "name": "metadataURI",
          "type": "string"
        },
        {
          "internalType": "uint256",
          "name": "creatorSharesPercent",
          "type": "uint256"
        },
        {
          "internalType": "uint256",
          "name": "pricePerShare",
          "type": "uint256"
        },
        {
          "internalType": "uint256",
          "name": "commercialRevSharePercent",
          "type": "uint256"
        }
      ],
      "name": "createAsset",
      "outputs": [
        {
          "internalType": "uint256",
          "name": "assetId",
          "type": "uint256"
        }
      ],
      "stateMutability": "nonpayable",
      "type": "function"
    },
    {
      "inputs": [
        {
          "internalType": "address",
          "name": "",
          "type": "address"
        }
      ],
      "name": "creators",
      "outputs": [
        {
          "internalType": "address",
          "name": "wallet",
          "type": "address"
        },
        {
          "internalType": "uint256",
          "name": "assetsCreated",
          "type": "uint256"
        },
        {
          "internalType": "bool",
          "name": "isVerified",
          "type": "bool"
        },
        {
          "internalType": "enum VerificationStatus",
          "name": "verificationStatus",
          "type": "uint8"
        },
        {
          "internalType": "string",
          "name": "profilephotoIPFS",
          "type": "string"
        },
        {
          "internalType": "string",
          "name": "bio",
          "type": "string"
        },
        {
          "internalType": "string",
          "name": "platformName",
          "type": "string"
        }
      ],
      "stateMutability": "view",
      "type": "function"
    },
    {
      "inputs": [
        {
          "internalType": "uint256",
          "name": "assetId",
          "type": "uint256"
        }
      ],
      "name": "depositRoyalties",
      "outputs": [],
      "stateMutability": "payable",
      "type": "function"
    },
    {
      "inputs": [
        {
          "internalType": "uint256",
          "name": "assetId",
          "type": "uint256"
        }
      ],
      "name": "distributeRoyalties",
      "outputs": [],
      "stateMutability": "nonpayable",
      "type": "function"
    },
    {
      "inputs": [
        {
          "internalType": "uint256",
          "name": "",
          "type": "uint256"
        }
      ],
      "name": "distributionCount",
      "outputs": [
        {
          "internalType": "uint256",
          "name": "",
          "type": "uint256"
        }
      ],
      "stateMutability": "view",
      "type": "function"
    },
    {
      "inputs": [],
      "name": "getAllAssetShares",
      "outputs": [
        {
          "components": [
            {
              "components": [
                {
                  "internalType": "uint256",
                  "name": "nftTokenId",
                  "type": "uint256"
                },
                {
                  "internalType": "address",
                  "name": "ipId",
                  "type": "address"
                },
                {
                  "internalType": "uint256",
                  "name": "licenseTermsId",
                  "type": "uint256"
                },
                {
                  "internalType": "address",
                  "name": "creator",
                  "type": "address"
                },
                {
                  "internalType": "enum AssetType",
                  "name": "assetType",
                  "type": "uint8"
                },
                {
                  "internalType": "string",
                  "name": "title",
                  "type": "string"
                },
                {
                  "internalType": "string",
                  "name": "description",
                  "type": "string"
                },
                {
                  "internalType": "string",
                  "name": "metadataURI",
                  "type": "string"
                },
                {
                  "internalType": "address",
                  "name": "shareTokenAddress",
                  "type": "address"
                },
                {
                  "internalType": "uint256",
                  "name": "totalRoyaltiesCollected",
                  "type": "uint256"
                },
                {
                  "internalType": "bool",
                  "name": "exists",
                  "type": "bool"
                },
                {
                  "internalType": "enum VerificationStatus",
                  "name": "verificationStatus",
                  "type": "uint8"
                },
                {
                  "internalType": "uint256",
                  "name": "yes_votes",
                  "type": "uint256"
                },
                {
                  "internalType": "uint256",
                  "name": "no_votes",
                  "type": "uint256"
                }
              ],
              "internalType": "struct Asset",
              "name": "asset",
              "type": "tuple"
            },
            {
              "internalType": "uint256",
              "name": "balance",
              "type": "uint256"
            }
          ],
          "internalType": "struct UserAssets[]",
          "name": "",
          "type": "tuple[]"
        }
      ],
      "stateMutability": "view",
      "type": "function"
    },
    {
      "inputs": [],
      "name": "getAllAssets",
      "outputs": [
        {
          "components": [
            {
              "components": [
                {
                  "internalType": "uint256",
                  "name": "nftTokenId",
                  "type": "uint256"
                },
                {
                  "internalType": "address",
                  "name": "ipId",
                  "type": "address"
                },
                {
                  "internalType": "uint256",
                  "name": "licenseTermsId",
                  "type": "uint256"
                },
                {
                  "internalType": "address",
                  "name": "creator",
                  "type": "address"
                },
                {
                  "internalType": "enum AssetType",
                  "name": "assetType",
                  "type": "uint8"
                },
                {
                  "internalType": "string",
                  "name": "title",
                  "type": "string"
                },
                {
                  "internalType": "string",
                  "name": "description",
                  "type": "string"
                },
                {
                  "internalType": "string",
                  "name": "metadataURI",
                  "type": "string"
                },
                {
                  "internalType": "address",
                  "name": "shareTokenAddress",
                  "type": "address"
                },
                {
                  "internalType": "uint256",
                  "name": "totalRoyaltiesCollected",
                  "type": "uint256"
                },
                {
                  "internalType": "bool",
                  "name": "exists",
                  "type": "bool"
                },
                {
                  "internalType": "enum VerificationStatus",
                  "name": "verificationStatus",
                  "type": "uint8"
                },
                {
                  "internalType": "uint256",
                  "name": "yes_votes",
                  "type": "uint256"
                },
                {
                  "internalType": "uint256",
                  "name": "no_votes",
                  "type": "uint256"
                }
              ],
              "internalType": "struct Asset",
              "name": "asset",
              "type": "tuple"
            },
            {
              "internalType": "uint256",
              "name": "vote",
              "type": "uint256"
            },
            {
              "internalType": "address[]",
              "name": "verifiers",
              "type": "address[]"
            }
          ],
          "internalType": "struct AssetWithVote[]",
          "name": "",
          "type": "tuple[]"
        }
      ],
      "stateMutability": "view",
      "type": "function"
    },
    {
      "inputs": [
        {
          "internalType": "uint256",
          "name": "assetId",
          "type": "uint256"
        }
      ],
      "name": "getAllDistributions",
      "outputs": [
        {
          "internalType": "uint256[]",
          "name": "totalAmounts",
          "type": "uint256[]"
        },
        {
          "internalType": "uint256[]",
          "name": "timestamps",
          "type": "uint256[]"
        },
        {
          "internalType": "bool[]",
          "name": "claimed",
          "type": "bool[]"
        },
        {
          "internalType": "uint256[]",
          "name": "claimableAmounts",
          "type": "uint256[]"
        },
        {
          "internalType": "uint256",
          "name": "totalClaimable",
          "type": "uint256"
        }
      ],
      "stateMutability": "view",
      "type": "function"
    },
    {
      "inputs": [],
      "name": "getAllUserAssets",
      "outputs": [
        {
          "components": [
            {
              "internalType": "uint256",
              "name": "nftTokenId",
              "type": "uint256"
            },
            {
              "internalType": "address",
              "name": "ipId",
              "type": "address"
            },
            {
              "internalType": "uint256",
              "name": "licenseTermsId",
              "type": "uint256"
            },
            {
              "internalType": "address",
              "name": "creator",
              "type": "address"
            },
            {
              "internalType": "enum AssetType",
              "name": "assetType",
              "type": "uint8"
            },
            {
              "internalType": "string",
              "name": "title",
              "type": "string"
            },
            {
              "internalType": "string",
              "name": "description",
              "type": "string"
            },
            {
              "internalType": "string",
              "name": "metadataURI",
              "type": "string"
            },
            {
              "internalType": "address",
              "name": "shareTokenAddress",
              "type": "address"
            },
            {
              "internalType": "uint256",
              "name": "totalRoyaltiesCollected",
              "type": "uint256"
            },
            {
              "internalType": "bool",
              "name": "exists",
              "type": "bool"
            },
            {
              "internalType": "enum VerificationStatus",
              "name": "verificationStatus",
              "type": "uint8"
            },
            {
              "internalType": "uint256",
              "name": "yes_votes",
              "type": "uint256"
            },
            {
              "internalType": "uint256",
              "name": "no_votes",
              "type": "uint256"
            }
          ],
          "internalType": "struct Asset[]",
          "name": "",
          "type": "tuple[]"
        }
      ],
      "stateMutability": "view",
      "type": "function"
    },
    {
      "inputs": [
        {
          "internalType": "uint256",
          "name": "assetId",
          "type": "uint256"
        }
      ],
      "name": "getAsset",
      "outputs": [
        {
          "components": [
            {
              "internalType": "uint256",
              "name": "nftTokenId",
              "type": "uint256"
            },
            {
              "internalType": "address",
              "name": "ipId",
              "type": "address"
            },
            {
              "internalType": "uint256",
              "name": "licenseTermsId",
              "type": "uint256"
            },
            {
              "internalType": "address",
              "name": "creator",
              "type": "address"
            },
            {
              "internalType": "enum AssetType",
              "name": "assetType",
              "type": "uint8"
            },
            {
              "internalType": "string",
              "name": "title",
              "type": "string"
            },
            {
              "internalType": "string",
              "name": "description",
              "type": "string"
            },
            {
              "internalType": "string",
              "name": "metadataURI",
              "type": "string"
            },
            {
              "internalType": "address",
              "name": "shareTokenAddress",
              "type": "address"
            },
            {
              "internalType": "uint256",
              "name": "totalRoyaltiesCollected",
              "type": "uint256"
            },
            {
              "internalType": "bool",
              "name": "exists",
              "type": "bool"
            },
            {
              "internalType": "enum VerificationStatus",
              "name": "verificationStatus",
              "type": "uint8"
            },
            {
              "internalType": "uint256",
              "name": "yes_votes",
              "type": "uint256"
            },
            {
              "internalType": "uint256",
              "name": "no_votes",
              "type": "uint256"
            }
          ],
          "internalType": "struct Asset",
          "name": "",
          "type": "tuple"
        },
        {
          "internalType": "address[]",
          "name": "verifiers",
          "type": "address[]"
        }
      ],
      "stateMutability": "view",
      "type": "function"
    },
    {
      "inputs": [],
      "name": "getAssetNFTAddress",
      "outputs": [
        {
          "internalType": "address",
          "name": "",
          "type": "address"
        }
      ],
      "stateMutability": "view",
      "type": "function"
    },
    {
      "inputs": [
        {
          "internalType": "address",
          "name": "creator",
          "type": "address"
        }
      ],
      "name": "getCreatorBasicInfo",
      "outputs": [
        {
          "internalType": "address",
          "name": "walletAddress",
          "type": "address"
        },
        {
          "internalType": "string",
          "name": "name",
          "type": "string"
        },
        {
          "internalType": "string",
          "name": "photo",
          "type": "string"
        },
        {
          "internalType": "string",
          "name": "bio",
          "type": "string"
        },
        {
          "internalType": "bool",
          "name": "isVerified",
          "type": "bool"
        }
      ],
      "stateMutability": "view",
      "type": "function"
    },
    {
      "inputs": [
        {
          "internalType": "address",
          "name": "user",
          "type": "address"
        }
      ],
      "name": "getUserDepositions",
      "outputs": [
        {
          "components": [
            {
              "internalType": "uint256",
              "name": "amount",
              "type": "uint256"
            },
            {
              "internalType": "uint256",
              "name": "timestamp",
              "type": "uint256"
            }
          ],
          "internalType": "struct Deposition[]",
          "name": "",
          "type": "tuple[]"
        }
      ],
      "stateMutability": "view",
      "type": "function"
    },
    {
      "inputs": [
        {
          "internalType": "address",
          "name": "user",
          "type": "address"
        },
        {
          "internalType": "uint256",
          "name": "assetId",
          "type": "uint256"
        }
      ],
      "name": "getUserShares",
      "outputs": [
        {
          "internalType": "uint256",
          "name": "",
          "type": "uint256"
        }
      ],
      "stateMutability": "view",
      "type": "function"
    },
    {
      "inputs": [
        {
          "internalType": "uint256",
          "name": "assetId",
          "type": "uint256"
        },
        {
          "internalType": "address",
          "name": "user",
          "type": "address"
        }
      ],
      "name": "hasVoted",
      "outputs": [
        {
          "internalType": "bool",
          "name": "",
          "type": "bool"
        }
      ],
      "stateMutability": "view",
      "type": "function"
    },
    {
      "inputs": [
        {
          "internalType": "address",
          "name": "",
          "type": "address"
        },
        {
          "internalType": "address",
          "name": "",
          "type": "address"
        },
        {
          "internalType": "uint256",
          "name": "",
          "type": "uint256"
        },
        {
          "internalType": "bytes",
          "name": "",
          "type": "bytes"
        }
      ],
      "name": "onERC721Received",
      "outputs": [
        {
          "internalType": "bytes4",
          "name": "",
          "type": "bytes4"
        }
      ],
      "stateMutability": "nonpayable",
      "type": "function"
    },
    {
      "inputs": [],
      "name": "pause",
      "outputs": [],
      "stateMutability": "nonpayable",
      "type": "function"
    },
    {
      "inputs": [],
      "name": "platformFeePercent",
      "outputs": [
        {
          "internalType": "uint256",
          "name": "",
          "type": "uint256"
        }
      ],
      "stateMutability": "view",
      "type": "function"
    },
    {
      "inputs": [],
      "name": "platformOwner",
      "outputs": [
        {
          "internalType": "address",
          "name": "",
          "type": "address"
        }
      ],
      "stateMutability": "view",
      "type": "function"
    },
    {
      "inputs": [
        {
          "internalType": "string",
          "name": "_name",
          "type": "string"
        },
        {
          "internalType": "string",
          "name": "_profilephotoIPFS",
          "type": "string"
        },
        {
          "internalType": "string",
          "name": "_bio",
          "type": "string"
        }
      ],
      "name": "registerCreator",
      "outputs": [],
      "stateMutability": "nonpayable",
      "type": "function"
    },
    {
      "inputs": [
        {
          "internalType": "uint256",
          "name": "",
          "type": "uint256"
        },
        {
          "internalType": "uint256",
          "name": "",
          "type": "uint256"
        }
      ],
      "name": "royaltyDistributions",
      "outputs": [
        {
          "internalType": "uint256",
          "name": "totalAmount",
          "type": "uint256"
        },
        {
          "internalType": "uint256",
          "name": "timestamp",
          "type": "uint256"
        },
        {
          "internalType": "uint256",
          "name": "totalSharesAtDistribution",
          "type": "uint256"
        }
      ],
      "stateMutability": "view",
      "type": "function"
    },
    {
      "inputs": [
        {
          "internalType": "string",
          "name": "_name",
          "type": "string"
        },
        {
          "internalType": "string",
          "name": "_profilephotoIPFS",
          "type": "string"
        },
        {
          "internalType": "string",
          "name": "_bio",
          "type": "string"
        }
      ],
      "name": "updateCreatorProfileDetails",
      "outputs": [],
      "stateMutability": "nonpayable",
      "type": "function"
    },
    {
      "inputs": [
        {
          "internalType": "uint256",
          "name": "",
          "type": "uint256"
        },
        {
          "internalType": "uint256",
          "name": "",
          "type": "uint256"
        },
        {
          "internalType": "address",
          "name": "",
          "type": "address"
        }
      ],
      "name": "userDistributions",
      "outputs": [
        {
          "internalType": "uint256",
          "name": "",
          "type": "uint256"
        }
      ],
      "stateMutability": "view",
      "type": "function"
    },
    {
      "inputs": [
        {
          "internalType": "address",
          "name": "",
          "type": "address"
        },
        {
          "internalType": "uint256",
          "name": "",
          "type": "uint256"
        }
      ],
      "name": "userOwnsAssetShares",
      "outputs": [
        {
          "internalType": "bool",
          "name": "",
          "type": "bool"
        }
      ],
      "stateMutability": "view",
      "type": "function"
    },
    {
      "inputs": [
        {
          "internalType": "address",
          "name": "",
          "type": "address"
        },
        {
          "internalType": "uint256",
          "name": "",
          "type": "uint256"
        }
      ],
      "name": "userToDepositions",
      "outputs": [
        {
          "internalType": "uint256",
          "name": "amount",
          "type": "uint256"
        },
        {
          "internalType": "uint256",
          "name": "timestamp",
          "type": "uint256"
        }
      ],
      "stateMutability": "view",
      "type": "function"
    },
    {
      "inputs": [
        {
          "internalType": "address",
          "name": "",
          "type": "address"
        },
        {
          "internalType": "uint256",
          "name": "",
          "type": "uint256"
        }
      ],
      "name": "userToOwnedAssets",
      "outputs": [
        {
          "internalType": "uint256",
          "name": "",
          "type": "uint256"
        }
      ],
      "stateMutability": "view",
      "type": "function"
    },
    {
      "inputs": [
        {
          "internalType": "address",
          "name": "",
          "type": "address"
        },
        {
          "internalType": "uint256",
          "name": "",
          "type": "uint256"
        }
      ],
      "name": "userToOwnedAssetsNFTIds",
      "outputs": [
        {
          "internalType": "uint256",
          "name": "",
          "type": "uint256"
        }
      ],
      "stateMutability": "view",
      "type": "function"
    },
    {
      "inputs": [
        {
          "internalType": "uint256",
          "name": "assetId",
          "type": "uint256"
        },
        {
          "internalType": "bool",
          "name": "vote",
          "type": "bool"
        }
      ],
      "name": "voteOnAsset",
      "outputs": [],
      "stateMutability": "nonpayable",
      "type": "function"
    },
    {
      "stateMutability": "payable",
      "type": "receive"
    }
  ],
  "bytecode": "0x60a0806040523460925760016000556101f4600f5561139e8181016001600160401b03811183821017607c578291614a9e833903906000f08015607057608052600e80546001600160a01b03191633179055604051614a06908161009882396080518181816104cd0152611f510152f35b6040513d6000823e3d90fd5b634e487b7160e01b600052604160045260246000fd5b600080fdfe6080604052600436101561001b575b361561001957600080fd5b005b6000803560e01c8063150b7a02146129b15780631e0aff2c146129595780632acada4d146127bb5780633002197c14612791578063343e76fb146127485780633998a6811461272b5780633b9d325414611e2357806341c2c47414611d795780634385963214611d2d5780634df8ccb114611d045780635c89cbbc14611c54578063686696b114611bf85780638456cb5914611bc357806384fa141314611b96578063868782ed14611a765780638c639a8514611a585780638f66023e146118c55780639214723d146117e8578063933166e11461171e57806397a3bc3c146116d65780639b16b18e146116ac578063a163e636146104b7578063a1c864e9146112f3578063ab6fc0ca14611216578063ac20a982146111cb578063ace3c7a0146110a6578063af8f1a7514611053578063b07cb36514610bc9578063cf35bdd014610a8f578063ddd9d045146109d2578063e98670b014610898578063ea366183146104fc578063ea67cf28146104b7578063eac8f5b81461042c578063ec1a512b146103d55763fecc2b43146101b3575061000e565b3461037d578060031936011261037d57338152600a602052604081206040518082602082945493848152019085526020852092855b8181106103bc5750506101fd92500382612aac565b805161020881612ecd565b916102166040519384612aac565b818352601f1961022583612ecd565b01845b818110610392575050835b8281106102b55783856040519182916020830160208452825180915260408401602060408360051b870101940192905b82821061027257505050500390f35b919360019193955060208091603f19898203018552875190828061029f8451604085526040850190612b97565b9301519101529601920192018594939192610263565b806102c260249284613092565b51808752600660205260018060a01b03600760408920015416908752600660205260206040882091604051948580926370a0823160e01b82523360048301525afa801561038757879061034c575b600193506103296040519261032484612a91565b612f5a565b8252602082015261033a8287613092565b526103458186613092565b5001610233565b50909160203d8111610380575b6103638183612aac565b6020826000928101031261037d5750906001929151610310565b80fd5b503d610359565b6040513d89823e3d90fd5b6020906040516103a181612a91565b6103a9612ee4565b8152878382015282828801015201610228565b84548352600194850194869450602090930192016101e8565b503461037d57604036600319011261037d576103ef612a18565b6001600160a01b03168152600b602052604081208054602435929083101561037d57602061041d8484612e31565b90549060031b1c604051908152f35b503461037d57602036600319011261037d57600435610449612ee4565b506001548110156104a8576104a4610481604084846104969652600960205261047382822061303e565b948152600660205220612f5a565b91604051938493604085526040850190612b97565b908382036020850152612c7c565b0390f35b63b4fa3fb360e01b8252600482fd5b503461037d578060031936011261037d576040517f00000000000000000000000000000000000000000000000000000000000000006001600160a01b03168152602090f35b503461037d5761050b36612e49565b338452600760205260408420549193909290916001600160a01b03166104a857338252600760205260076040832001908051906001600160401b0382116108845781906105588454612d53565b601f8111610834575b50602090601f83116001146107d15785926107c6575b50508160011b916000199060031b1c19161790555b33815260076020526005604082200183516001600160401b038111610700576105b58254612d53565b601f8111610781575b50602094601f821160011461071f579483949582939492610714575b50508160011b916000199060031b1c19161790555b33815260076020526006604082200182516001600160401b038111610700576106188254612d53565b601f81116106bb575b506020601f821160011461065c57839482939492610651575b50508160011b916000199060031b1c191617905580f35b01519050388061063a565b82845280842090601f198316855b8181106106a35750958360019596971061068a575b505050811b01905580f35b015160001960f88460031b161c1916905538808061067f565b9192602060018192868b01518155019401920161066a565b82845260208420601f830160051c810191602084106106f6575b601f0160051c01905b8181106106eb5750610621565b8481556001016106de565b90915081906106d5565b634e487b7160e01b83526041600452602483fd5b0151905038806105da565b601f1982169583855280852091855b88811061076957508360019596979810610750575b505050811b0190556105ef565b015160001960f88460031b161c19169055388080610743565b9192602060018192868501518155019401920161072e565b82845260208420601f830160051c810191602084106107bc575b601f0160051c01905b8181106107b157506105be565b8481556001016107a4565b909150819061079b565b015190503880610577565b8486528186209250601f198416865b81811061081c5750908460019594939210610803575b505050811b01905561058c565b015160001960f88460031b161c191690553880806107f6565b929360206001819287860151815501950193016107e0565b90915083855260208520601f840160051c8101916020851061087a575b90601f859493920160051c01905b81811061086c5750610561565b86815584935060010161085f565b9091508190610851565b634e487b7160e01b84526041600452602484fd5b50602036600319011261037d576004356108b06133f8565b6001548110156104a85734156104a85781906127106108d1600f5434613279565b04906108dd823461326c565b908084526005602052604084206108f583825461325f565b9055835260066020526109106008604085200191825461325f565b905580610999575b505060405161092681612a91565b34815260208101428152338352600c60205260408320805490600160401b821015610985579061095b91600182018155612ced565b9290926109715751825551600191820155815580f35b634e487b7160e01b84526004849052602484fd5b634e487b7160e01b85526041600452602485fd5b600e54829182918291906001600160a01b03165af16109b6613141565b50156109c3578038610918565b6312171d8360e31b8152600490fd5b503461037d57604036600319011261037d576109ec612a18565b906024356001548110156104a85781526006602090815260408083206007015490516370a0823160e01b81526001600160a01b0394851660048201529384916024918391165afa908115610a835790610a4b575b602090604051908152f35b506020813d602011610a7b575b81610a6560209383612aac565b81010312610a765760209051610a40565b600080fd5b3d9150610a58565b604051903d90823e3d90fd5b503461037d57602036600319011261037d5760043581526006602052604090208054600160a01b6001900360018301541691600281015460038201549160048101610ad990612d8d565b92610ae660058301612d8d565b93610af360068401612d8d565b600160a01b6001900360078501541695600885015492600986015494600a87015496600b0154976040519b8c9b8c5260208c015260408b0152600160a01b60019003811660608b015260808a019060a01c60ff1690610b5191612b1f565b60a089016101c090526101c08901610b6891612b65565b88810360c08a0152610b7991612b65565b87810360e0890152610b8a91612b65565b9461010087015261012086015260ff8116151561014086015261016085019060081c60ff1690610bb991612b8a565b6101808401526101a08301520390f35b503461037d57602036600319011261037d5760043590610be76133f8565b60015482101561104457818152600560205260408120541561103557818152600660205260408120600301546001600160a01b0316330361102657818152600660205260018060a01b036007604083200154169180825260056020526040822054604051926318160ddd60e01b8452602084600481885afa938415611019578194610fe5575b5083159485610fd657604051610c8281612a44565b838152602081014281526040820190878252868552600360205260408520805490600160401b821015610fc25790610cbf91600182018155612eb1565b939093610fae575183555160018301555160029091015583825260036020526040822054600019810191908211610f9a5790826004949392604051958680926311a457f160e21b82525afa958615610f8f5782948397610e63575b508293835b8651811015610dcd57610d32818a613092565b51610d40575b600101610d1f565b610d54610d4d828b613092565b5183613279565b8a610db95783900480610d68575b50610d38565b610db290600192978a8852600260205260408820878952602052816040808a208c610d998d898060a01b0392613092565b511690600091888060a01b03168252602052205561325f565b9590610d62565b634e487b7160e01b86526012600452602486fd5b5086915084828552600460205260408520610de881546130a6565b90558285526005602052846040812055818110610e08575b846001815580f35b610e119161326c565b81845260026020908152604080862094865293815283852092855260068152838520600301546001600160a01b0316600090815292905291902080549091610e589161325f565b905581808080610e00565b945095503d8083863e610e768186612aac565b840193604081860312610f8b5780516001600160401b038111610f5b5781019085601f83011215610f5b578151610eac81612ecd565b92610eba6040519485612aac565b81845260208085019260051b82010190888211610f8757602001915b818310610f63575050506020810151906001600160401b038211610f5f57019480601f87011215610f5b578551610f0c81612ecd565b96610f1a6040519889612aac565b81885260208089019260051b820101928311610f5757602001905b828210610f4757505050939538610d1a565b8151815260209182019101610f35565b8580fd5b8380fd5b8480fd5b82516001600160a01b0381168103610f8357815260209283019201610ed6565b8780fd5b8680fd5b8280fd5b6040513d84823e3d90fd5b634e487b7160e01b83526011600452602483fd5b634e487b7160e01b86526004869052602486fd5b634e487b7160e01b87526041600452602487fd5b63bd3a4c3f60e01b8252600482fd5b9093506020813d602011611011575b8161100160209383612aac565b81010312610a7657519238610c6d565b3d9150610ff4565b50604051903d90823e3d90fd5b63b0586ecb60e01b8152600490fd5b63bd3a4c3f60e01b8152600490fd5b63b4fa3fb360e01b8152600490fd5b503461037d5761106236612cd7565b9190815260036020526040812090815483101561037d5760606110858484612eb1565b50805490600260018201549101549060405192835260208301526040820152f35b503461037d578060031936011261037d57338152600a60205260408120546110cd81612ecd565b906110db6040519283612aac565b808252601f196110ea82612ecd565b01835b8181106111b4575050825b8181106111665782846040519182916020830160208452825180915260408401602060408360051b870101940192905b82821061113757505050500390f35b919360019193955060206111568192603f198a82030186528851612b97565b9601920192018594939192611128565b600190338552600a60205261117e8160408720612e31565b90549060031b1c8552600660205261119860408620612f5a565b6111a28286613092565b526111ad8185613092565b50016110f8565b6020906111bf612ee4565b828287010152016110ed565b503461037d576111da36612cd7565b9190815260096020526040812090815483101561037d5760206111fd8484612e31565b905460405160039290921b1c6001600160a01b03168152f35b503461037d57602036600319011261037d576004356112336133f8565b6001548110156104a8578082526003602052604082205482913390835b83811061128b578585801561127c578180808093335af161126f613141565b50156109c3576001815580f35b6360fb0db360e01b8252600482fd5b81865260026020526040862081875260205260408087206000908582526020522054806112bc575b50600101611250565b6112c9906001929661325f565b948287526002602052604087208188526020528660408082206000908782526020522055906112b3565b503461037d5761130236612e49565b3384526007602052604084205490939291906001600160a01b031661169d5733808452600760208190526040852080546001600160a01b03191690921782558351919390840191906001600160401b0382116116895781906113648454612d53565b601f8111611639575b50602090601f83116001146115d65787926115cb575b50508160011b916000199060031b1c19161790555b805160058301916001600160401b0382116109855781906113b98454612d53565b601f811161157b575b50602090601f831160011461151857869261150d575b50508160011b916000199060031b1c19161790555b6006810183516001600160401b0381116108845761140b8254612d53565b601f81116114c8575b506020601f8211600114611463578190859660049692611458575b50508160011b916000199060031b1c19161790555b6003810183905501805461ffff1916905580f35b01519050388061142f565b82855280852095601f198316865b8181106114b05750916004969791846001959410611497575b505050811b019055611444565b015160001960f88460031b161c1916905538808061148a565b83830151895560019098019760209384019301611471565b82855260208520601f830160051c81019160208410611503575b601f0160051c01905b8181106114f85750611414565b8581556001016114eb565b90915081906114e2565b0151905038806113d8565b8487528187209250601f198416875b818110611563575090846001959493921061154a575b505050811b0190556113ed565b015160001960f88460031b161c1916905538808061153d565b92936020600181928786015181550195019301611527565b90915083865260208620601f840160051c810191602085106115c1575b90601f859493920160051c01905b8181106115b357506113c2565b8781558493506001016115a6565b9091508190611598565b015190503880611383565b8488528188209250601f198416885b8181106116215750908460019594939210611608575b505050811b019055611398565b015160001960f88460031b161c191690553880806115fb565b929360206001819287860151815501950193016115e5565b90915083875260208720601f840160051c8101916020851061167f575b90601f859493920160051c01905b818110611671575061136d565b888155849350600101611664565b9091508190611656565b634e487b7160e01b86526041600452602486fd5b633bcf4e5160e11b8352600483fd5b503461037d57602036600319011261037d5760406020916004358152600583522054604051908152f35b503461037d57604036600319011261037d576116f0612a18565b6001600160a01b03168152600a602052604081208054602435929083101561037d57602061041d8484612e31565b503461037d57602036600319011261037d576040906001600160a01b03611743612a18565b16815260076020522060018060a01b038154166104a46003830154926117da6004820154916117cc61177760058301612d8d565b6117bb611792600761178b60068701612d8d565b9501612d8d565b95604051998a998a5260208a015260ff8116151560408a015260ff60608a019160081c16612b8a565b60e0608088015260e0870190612b65565b9085820360a0870152612b65565b9083820360c0850152612b65565b503461037d57602036600319011261037d576001600160a01b0361180a612a18565b168152600c60205260408120805461182181612ecd565b9061182f6040519283612aac565b80825260208201809385526020852085915b83831061189857868587604051928392602084019060208552518091526040840192915b818110611873575050500390f35b8251805185526020908101518186015286955060409094019390920191600101611865565b600260206001926040516118ab81612a91565b855481528486015483820152815201920192019190611841565b503461037d57602036600319011261037d576004356001548110156104a857808252600360205260408220546118fa8161322d565b916119048261322d565b9361190e83612ecd565b61191b6040519182612aac565b83815261192784612ecd565b602082019690601f190136883761193d8561322d565b9294929385938491335b898385106119cd57505050505061197c60209161196f6040519860a08a5260a08a0190612d1f565b90888203848a0152612d1f565b91868303604088015251918281520195915b8181106119b557505050836119ab91848096036060860152612d1f565b9060808301520390f35b8251151587526020968701969092019160010161198e565b848394959a60018a611a4b94829697829c9d526003602052611a1f6040806119f788828720612eb1565b50948c81526002602052818120898252602052206000908b8252602052205495835492613092565b520154611a2c8d8a613092565b528115611a398d8c613092565b5281611a458d8d613092565b5261325f565b9801929190959495611947565b503461037d578060031936011261037d576020600f54604051908152f35b50611a8036612cd7565b611a886133f8565b600154821015611b87578183526006602052604083206007015483916001600160a01b0390911690813b15610f8b57829060446040518094819363f002c9ff60e01b8352600483015233602483015234905af18015610f8f57611b6e575b5050338252600d6020526040822081835260205260ff60408320541615611b10575b506001815580f35b338252600a602052611b2581604084206130cb565b338252600b602052611b476040832082845260066020526040842054906130cb565b338252600d6020526040822090825260205260408120600160ff1982541617905538611b08565b81611b7891612aac565b611b83578138611ae6565b5080fd5b63b4fa3fb360e01b8352600483fd5b503461037d57604036600319011261037d576024358015158103611b8357611bc090600435613171565b80f35b503461037d578060031936011261037d57600e546001600160a01b03163303611be95780f35b633108f42160e21b8152600490fd5b503461037d57604036600319011261037d57611c12612a18565b6001600160a01b03168152600c602052604081208054602435929083101561037d576040611c408484612ced565b506001815491015482519182526020820152f35b503461037d57602036600319011261037d576040906001600160a01b03611c79612a18565b16815260076020522060018060a01b0381541660ff600483015416611cf8611ca360078501612d8d565b93611cea611cbf6006611cb860058501612d8d565b9301612d8d565b91611cdc604051978897885260a0602089015260a0880190612b65565b908682036040880152612b65565b908482036060860152612b65565b90151560808301520390f35b503461037d578060031936011261037d57600e546040516001600160a01b039091168152602090f35b503461037d57604036600319011261037d576040611d49612a2e565b9160043581526008602052209060018060a01b0316600052602052602060ff604060002054166040519015158152f35b503461037d57611d8836612cd7565b611d906133f8565b600154821015611b875781835260036020526040832054811015611b875781835260026020908152604080852083865282528085203360009081529252902054918215611e14578380938193829383526002602052604083209083526020526040822060018060a01b03331660005260205281604060002055335af161126f613141565b6360fb0db360e01b8452600484fd5b503461037d5760e036600319011261037d5760043590600882101561037d576024356001600160401b038111611b8357611e61903690600401612cb9565b6044356001600160401b038111610f8b57611e80903690600401612cb9565b926064356001600160401b038111610f5b57611ea0903690600401612cb9565b6084359261232884118015612720575b61271157606460c43511612711576001549495611f9a94611ed0876130a6565b600155611edc8561328c565b908860405166020b9b9b2ba1d160cd1b6020820152611f46600982602789519760208b0198611f0e818486018c612b42565b8301680103e102a3cb8329d160bd1b83820152611f35825180936020603085019101612b42565b01010301601f198101835282612aac565b602060018060a01b037f00000000000000000000000000000000000000000000000000000000000000001691604051809b819263d0def52160e01b8352306004840152604060248401526044830190612b65565b038185855af1988915610f8f5782996126dd575b50803b15611b835781906064604051809481936323b872dd60e01b83523060048401523360248401528d60448401525af180156126d2576126be575b506120286007602060405180956120078951809285850190612b42565b8101662053686172657360c81b838201520301601819810185520183612aac565b6120318661328c565b9161206a60216040518095600960fa1b60208301526120598151809260208686019101612b42565b81010301601f198101855284612aac565b604051926115b691828501928584106001600160401b038511176126aa57916120a76120b5928796959461341b883960c0855260c0850190612b65565b908382036020850152612b65565b913360408301528a6060830152608082015260a060a435910152039088f093841561038757604051936120e785612a75565b868552602085019589875260408601918a83526060870194338652612110608089019586612f4e565b60a0880196875260c088015260e08701526001600160a01b0390811661010087015261012086018a90526001610140870181905261016087018b905261018087018190526101a087018b9052898b52600660205260408b2087518155975190880180549183166001600160a01b031992831617905591516002880155925160038701805491909416911617825551600881101561269657815460ff60a01b191660a09190911b60ff60a01b16179055518051906001600160401b038211610fc25781906121e06004860154612d53565b601f8111612646575b50602090601f83116001146125dd5788926125d2575b50508160011b916000199060031b1c19161760048301555b60c08101518051906001600160401b038211610fc257819061223c6005860154612d53565b601f811161257f575b50602090601f831160011461251657889261250b575b50508160011b916000199060031b1c19161760058301555b6006820160e08201518051906001600160401b0382116124f75781906122998454612d53565b601f81116124a7575b50602090601f8311600114612444578992612439575b50508160011b916000199060031b1c19161790555b60018060a01b0361010082015116600783019060018060a01b03166bffffffffffffffffffffffff60a01b825416179055610120810151600883015560098201610140820151151560ff80198354169116178155610160820151600381101561242557815461ff00191660089190911b61ff0016179055610180810151600a8301556101a00151600b909101553380845260076020818152604080872080546001600160a01b031916851790559286529081529084206003018054919461241d9390926123b0929061239e906130a6565b9055338352600b8652604083206130cb565b338152600a84526123c483604083206130cb565b338152600d845260408120838252845260408120600160ff19825416179055828152600884526040812060018060a01b03331660005284526040600020600160ff19825416179055828152600984526040339120613100565b604051908152f35b634e487b7160e01b87526021600452602487fd5b0151905038806122b8565b848a52818a209250601f1984168a5b81811061248f5750908460019594939210612476575b505050811b0190556122cd565b015160001960f88460031b161c19169055388080612469565b92936020600181928786015181550195019301612453565b90915083895260208920601f840160051c810191602085106124ed575b90601f859493920160051c01905b8181106124df57506122a2565b8a81558493506001016124d2565b90915081906124c4565b634e487b7160e01b88526041600452602488fd5b01519050388061225b565b6005860189528189209250601f198416895b818110612567575090846001959493921061254e575b505050811b016005830155612273565b015160001960f88460031b161c1916905538808061253e565b92936020600181928786015181550195019301612528565b90915060058501885260208820601f840160051c810191602085106125c8575b90601f859493920160051c01905b8181106125ba5750612245565b8981558493506001016125ad565b909150819061259f565b0151905038806121ff565b6004860189528189209250601f198416895b81811061262e5750908460019594939210612615575b505050811b016004830155612217565b015160001960f88460031b161c19169055388080612605565b929360206001819287860151815501950193016125ef565b90915060048501885260208820601f840160051c81016020851061268f575b90849392915b601f830160051c820181106126815750506121e9565b8a815585945060010161266b565b5080612665565b634e487b7160e01b88526021600452602488fd5b634e487b7160e01b8d52604160045260248dfd5b896126cb919a929a612aac565b9738611fea565b6040513d8c823e3d90fd5b9098506020813d602011612709575b816126f960209383612aac565b81010312611b8357519738611fae565b3d91506126ec565b63b4fa3fb360e01b8552600485fd5b506103e88410611eb0565b503461037d578060031936011261037d5760206040516103e88152f35b503461037d57604036600319011261037d5760209060ff906040906001600160a01b03612773612a18565b168152600d8452818120602435825284522054166040519015158152f35b503461037d57602036600319011261037d5760406020916004358152600483522054604051908152f35b503461037d578060031936011261037d576001546127d881612ecd565b906127e66040519283612aac565b808252601f196127f582612ecd565b01835b8181106129285750339050835b82811061289d5783856040519182916020830160208452825180915260408401602060408360051b870101940192905b82821061284457505050500390f35b9193600191939550602061288d8192603f198a820301865288519060406128748351606084526060840190612b97565b9285810151868401520151906040818403910152612c7c565b9601920192018594939192612835565b80600191865260066020526040862081875260086020526040872084885260205260ff60408820541660001461291f576128fe835b838952600960205260ff60408a20916128f16040519561032487612a44565b855216602084015261303e565b604082015261290d8287613092565b526129188186613092565b5001612805565b6128fe876128d2565b60209060405161293781612a44565b61293f612ee4565b8152868382015260606040820152828287010152016127f8565b503461037d57606036600319011261037d576044356001600160a01b0381168103611b8357602091604091600435825260028452828220602435835284528282209060018060a01b0316825283522054604051908152f35b503461037d57608036600319011261037d576129cb612a18565b506129d4612a2e565b506064356001600160401b038111611b835736602382011215611b8357612a05903690602481600401359101612ae8565b50604051630a85bd0160e11b8152602090f35b600435906001600160a01b0382168203610a7657565b602435906001600160a01b0382168203610a7657565b606081019081106001600160401b03821117612a5f57604052565b634e487b7160e01b600052604160045260246000fd5b6101c081019081106001600160401b03821117612a5f57604052565b604081019081106001600160401b03821117612a5f57604052565b90601f801991011681019081106001600160401b03821117612a5f57604052565b6001600160401b038111612a5f57601f01601f191660200190565b929192612af482612acd565b91612b026040519384612aac565b829481845281830111610a76578281602093846000960137010152565b906008821015612b2c5752565b634e487b7160e01b600052602160045260246000fd5b60005b838110612b555750506000910152565b8181015183820152602001612b45565b90602091612b7e81518092818552858086019101612b42565b601f01601f1916010190565b906003821015612b2c5752565b908151815260018060a01b0360208301511660208201526040820151604082015260018060a01b036060830151166060820152612bdc60808301516080830190612b1f565b6101a080612c25612c13612c0160a08701516101c060a08801526101c0870190612b65565b60c087015186820360c0880152612b65565b60e086015185820360e0870152612b65565b9360018060a01b03610100820151166101008501526101208101516101208501526101408101511515610140850152612c68610160820151610160860190612b8a565b610180810151610180850152015191015290565b906020808351928381520192019060005b818110612c9a5750505090565b82516001600160a01b0316845260209384019390920191600101612c8d565b9080601f83011215610a7657816020612cd493359101612ae8565b90565b6040906003190112610a76576004359060243590565b8054821015612d095760005260206000209060011b0190600090565b634e487b7160e01b600052603260045260246000fd5b906020808351928381520192019060005b818110612d3d5750505090565b8251845260209384019390920191600101612d30565b90600182811c92168015612d83575b6020831014612d6d57565b634e487b7160e01b600052602260045260246000fd5b91607f1691612d62565b9060405191826000825492612da184612d53565b8084529360018116908115612e0f5750600114612dc8575b50612dc692500383612aac565b565b90506000929192526020600020906000915b818310612df3575050906020612dc69282010138612db9565b6020919350806001915483858901015201910190918492612dda565b905060209250612dc694915060ff191682840152151560051b82010138612db9565b8054821015612d095760005260206000200190600090565b6060600319820112610a76576004356001600160401b038111610a765781612e7391600401612cb9565b916024356001600160401b038111610a765782612e9291600401612cb9565b91604435906001600160401b038211610a7657612cd491600401612cb9565b8054821015612d09576000526003602060002091020190600090565b6001600160401b038111612a5f5760051b60200190565b60405190612ef182612a75565b60006101a083828152826020820152826040820152826060820152826080820152606060a0820152606060c0820152606060e082015282610100820152826101208201528261014082015282610160820152826101808201520152565b6008821015612b2c5752565b90604051612f6781612a75565b8254815260018301546001600160a01b039081166020830152600284015460408301526003840154908116606083015290928391612fae9060a01c60ff1660808401612f4e565b612fba60048201612d8d565b60a0830152612fcb60058201612d8d565b60c0830152612fdc60068201612d8d565b60e083015260078101546001600160a01b0316610100830152600880820154610120840152600982015460ff8181161515610140860152911c166003811015612b2c576101a091600b91610160850152600a8101546101808501520154910152565b906040519182815491828252602082019060005260206000209260005b818110613070575050612dc692500383612aac565b84546001600160a01b031683526001948501948794506020909301920161305b565b8051821015612d095760209160051b010190565b60001981146130b55760010190565b634e487b7160e01b600052601160045260246000fd5b8054600160401b811015612a5f576130e891600182018155612e31565b819291549060031b91821b91600019901b1916179055565b8054600160401b811015612a5f5761311d91600182018155612e31565b81546001600160a01b0393841660039290921b91821b9390911b1916919091179055565b3d1561316c573d9061315282612acd565b916131606040519384612aac565b82523d6000602084013e565b606090565b90816000526008602052604060002060018060a01b033316600052602052600160ff60406000205416151514613229571561320757806000526006602052600a6040600020016131c181546130a6565b90555b806000526008602052604060002060018060a01b0333166000526020526040600020600160ff198254161790556000526009602052612dc6336040600020613100565b806000526006602052600b60406000200161322281546130a6565b90556131c4565b5050565b9061323782612ecd565b6132446040519182612aac565b8281528092613255601f1991612ecd565b0190602036910137565b919082018092116130b557565b919082039182116130b557565b818102929181159184041417156130b557565b6008811015612b2c5780156133d4576000600182146133ad57506002811461338957600060038214613365575060048114613341576000906005811461331a5760069150146132f8576040516132e3604082612aac565b600581526427aa2422a960d91b602082015290565b604051613306604082612aac565b6004815263434f444560e01b602082015290565b505060405161332a604082612aac565b600781526657524954494e4760c81b602082015290565b50604051613350604082612aac565b6005815264564944454f60d81b602082015290565b505060408051906133769082612aac565b600381526210549560ea1b602082015290565b50604051613398604082612aac565b600581526444414e434560d81b602082015290565b505060408051906133be9082612aac565b6006815265504f4554525960d01b602082015290565b506040516133e3604082612aac565b60058152644d5553494360d81b602082015290565b600260005414613409576002600055565b633ee5aeb560e01b60005260046000fdfe60c060405234610581576115b68038038061001981610586565b928339810160c0828203126105815781516001600160401b03811161058157816100449184016105ab565b602083015190916001600160401b038211610581576100649184016105ab565b60408301516001600160a01b038116929190839003610581576060840151608085015160a090950151835190939192916001600160401b03821161033b5760035490600182811c92168015610577575b60208310146104745781601f849311610507575b50602090601f831160011461049f57600092610494575b50508160011b916000199060031b1c1916176003555b8051906001600160401b03821161033b5760045490600182811c9216801561048a575b60208310146104745781601f849311610404575b50602090601f831160011461039c57600092610391575b50508160011b916000199060031b1c1916176004555b821561037b57600580546001600160a01b03198116851790915583906001600160a01b03167f8be0079c531659141344cd1fd0a4f28419497f9722a3daafe3b4186f6b6457e0600080a33360805260a05261271083810204809303610365578261271003612710811161036557604051608081016001600160401b0381118282101761033b57600191606091604052868152836020820152846040820152015283600855600955600a55600160ff19600b541617600b5560009160025481810180911161035157602060009284957fddf252ad1be2c89b69c2b068fc378daa952ba7f163c4a11628f55a4df523b3ef936002555084845283825260408420818154019055604051908152a380600052600760205260ff60406000205416156102ab575b604051610f9f908161061782396080518181816105bf0152610774015260a0518181816105e301526106640152f35b8060005260076020526040600020600160ff198254161790556006546801000000000000000081101561033b5760018101806006558110156103255760066000527ff652222313e28459528d920b65115c16c04f3efc82aaedc97be59f3f377c0d3f0180546001600160a01b03191690911790553861027c565b634e487b7160e01b600052603260045260246000fd5b634e487b7160e01b600052604160045260246000fd5b634e487b7160e01b84526011600452602484fd5b634e487b7160e01b600052601160045260246000fd5b631e4fbdf760e01b600052600060045260246000fd5b015190503880610143565b600460009081528281209350601f198516905b8181106103ec57509084600195949392106103d3575b505050811b01600455610159565b015160001960f88460031b161c191690553880806103c5565b929360206001819287860151815501950193016103af565b60046000529091507f8a35acfbc15ff81a39ae7d344fd709f28e8600b4aa8c65c6b64bfe7fe36bd19b601f840160051c8101916020851061046a575b90601f859493920160051c01905b81811061045b575061012c565b6000815584935060010161044e565b9091508190610440565b634e487b7160e01b600052602260045260246000fd5b91607f1691610118565b0151905038806100df565b600360009081528281209350601f198516905b8181106104ef57509084600195949392106104d6575b505050811b016003556100f5565b015160001960f88460031b161c191690553880806104c8565b929360206001819287860151815501950193016104b2565b60036000529091507fc2575a0e9e593c00f959f8c92f12db2869c3395a3b0502d05e2516446f71f85b601f840160051c8101916020851061056d575b90601f859493920160051c01905b81811061055e57506100c8565b60008155849350600101610551565b9091508190610543565b91607f16916100b4565b600080fd5b6040519190601f01601f191682016001600160401b0381118382101761033b57604052565b81601f82011215610581578051906001600160401b03821161033b576105da601f8301601f1916602001610586565b92828452602083830101116105815760005b82811061060157505060206000918301015290565b806020809284010151828287010152016105ec56fe6080604052600436101561001257600080fd5b60003560e01c806306fdde0314610bd4578063095ea7b314610b4e57806318160ddd14610b3057806323b872dd14610a43578063313ce56714610a2757806346915fc4146108b15780635ee6d6751461087257806370a0823114610831578063715018a6146107d45780637d8966e4146107a35780637efc77fa1461075e57806385e3f9971461074157806388a17bde146107055780638d6cc56d146106e45780638da5cb5b146106bb57806395d89b41146106875780639ceb21ae1461064c5780639dfc911714610577578063a9059cbb14610546578063dd2cec7f14610504578063dd62ed3e146104b3578063f002c9ff146101d1578063f2fde38b146101475763f9ab71181461012457600080fd5b34610142576000366003190112610142576020600954604051908152f35b600080fd5b3461014257602036600319011261014257610160610c31565b610168610f40565b6001600160a01b031680156101bb57600580546001600160a01b0319811683179091556001600160a01b03167f8be0079c531659141344cd1fd0a4f28419497f9722a3daafe3b4186f6b6457e0600080a3005b631e4fbdf760e01b600052600060045260246000fd5b6040366003190112610142576004356101e8610c47565b9060ff600b54161561047c57801561043757600954918282116103f257600a5492838302938385040361038a578334106103b6578261022691610e84565b6009556001600160a01b03169182156103a05760025482810180911161038a5760209284916002557fddf252ad1be2c89b69c2b068fc378daa952ba7f163c4a11628f55a4df523b3ef600094859284845283825260408420818154019055604051908152a3828252600760205260ff60408320541615610316575b8192828080808560018060a01b036005541682821561030d575bf115610302578134116102cc575050f35b828092916102db829334610e84565b908282156102f9575bf1156102ed5780f35b604051903d90823e3d90fd5b506108fc6102e4565b6040513d84823e3d90fd5b506108fc6102bb565b828252600760205260408220805460ff19166001179055600654926801000000000000000084101561037657610353846001859601600655610c5d565b81546001600160a01b0360039290921b91821b19169083901b17905592506102a1565b634e487b7160e01b83526041600452602483fd5b634e487b7160e01b600052601160045260246000fd5b63ec442f0560e01b600052600060045260246000fd5b60405162461bcd60e51b8152602060048201526014602482015273125b9cdd59999a58da595b9d081c185e5b595b9d60621b6044820152606490fd5b60405162461bcd60e51b815260206004820152601b60248201527f4e6f7420656e6f7567682073686172657320617661696c61626c6500000000006044820152606490fd5b60405162461bcd60e51b815260206004820152601960248201527f4d75737420627579206174206c656173742031207368617265000000000000006044820152606490fd5b60405162461bcd60e51b815260206004820152600f60248201526e53616c65206e6f742061637469766560881b6044820152606490fd5b34610142576040366003190112610142576104cc610c31565b6104d4610c47565b6001600160a01b039182166000908152600160209081526040808320949093168252928352819020549051908152f35b34610142576020366003190112610142576004356006548110156101425761052d602091610c5d565b905460405160039290921b1c6001600160a01b03168152f35b346101425760403660031901126101425761056c610562610c31565b6024359033610e91565b602060405160018152f35b3461014257600036600319011261014257610622610593610cc6565b61059b610daa565b60085490600954600a549061063060ff600b54169360405197889760018060a01b037f00000000000000000000000000000000000000000000000000000000000000001689527f000000000000000000000000000000000000000000000000000000000000000060208a015261271060408a015261012060608a0152610120890190610bf0565b908782036080890152610bf0565b9360a086015260c085015260e084015215156101008301520390f35b346101425760003660031901126101425760206040517f00000000000000000000000000000000000000000000000000000000000000008152f35b34610142576000366003190112610142576106b76106a3610daa565b604051918291602083526020830190610bf0565b0390f35b34610142576000366003190112610142576005546040516001600160a01b039091168152602090f35b34610142576020366003190112610142576106fd610f40565b600435600a55005b34610142576000366003190112610142576080600854600954600a5460ff600b5416916040519384526020840152604083015215156060820152f35b346101425760003660031901126101425760206040516127108152f35b34610142576000366003190112610142576040517f00000000000000000000000000000000000000000000000000000000000000006001600160a01b03168152602090f35b34610142576000366003190112610142576107bc610f40565b600b5460ff80821615169060ff191617600b55600080f35b34610142576000366003190112610142576107ed610f40565b600580546001600160a01b031981169091556000906001600160a01b03167f8be0079c531659141344cd1fd0a4f28419497f9722a3daafe3b4186f6b6457e08280a3005b3461014257602036600319011261014257602061086a61084f610c31565b6001600160a01b031660009081526020819052604090205490565b604051908152f35b34610142576020366003190112610142576001600160a01b03610893610c31565b166000526007602052602060ff604060002054166040519015158152f35b34610142576000366003190112610142576006546108ce81610e58565b6108db6040519182610c8e565b8181526108e782610e58565b602082019290601f19013684376108fd81610e58565b9261090b6040519485610c8e565b81845261091782610e58565b602085019290601f190136843760005b8181106109b45750506040519384936040850190604086525180915260608501929060005b8181106109925750505060209084830382860152519182815201919060005b818110610979575050500390f35b825184528594506020938401939092019160010161096b565b82516001600160a01b031685528796506020948501949092019160010161094c565b806109c56001929794959697610c5d565b838060a01b0391549060031b1c166109dd8289610e70565b52610a116109ea82610c5d565b848060a01b0391549060031b1c1660018060a01b0316600052600060205260406000205490565b610a1b8286610e70565b52019493929194610927565b3461014257600036600319011261014257602060405160128152f35b3461014257606036600319011261014257610a5c610c31565b610a64610c47565b6001600160a01b0382166000818152600160209081526040808320338452909152902054909260443592916000198110610aa4575b5061056c9350610e91565b838110610b13578415610afd573315610ae75761056c946000526001602052604060002060018060a01b0333166000526020528360406000209103905584610a99565b634a1406b160e11b600052600060045260246000fd5b63e602df0560e01b600052600060045260246000fd5b8390637dc7a0d960e11b6000523360045260245260445260646000fd5b34610142576000366003190112610142576020600254604051908152f35b3461014257604036600319011261014257610b67610c31565b602435903315610afd576001600160a01b0316908115610ae757336000526001602052604060002082600052602052806040600020556040519081527f8c5be1e5ebec7d5bd14f71427d1e84f3dd0314c0f7b2291e5b200ac8c7c3b92560203392a3602060405160018152f35b34610142576000366003190112610142576106b76106a3610cc6565b919082519283825260005b848110610c1c575050826000602080949584010152601f8019910116010190565b80602080928401015182828601015201610bfb565b600435906001600160a01b038216820361014257565b602435906001600160a01b038216820361014257565b600654811015610c7857600660005260206000200190600090565b634e487b7160e01b600052603260045260246000fd5b90601f8019910116810190811067ffffffffffffffff821117610cb057604052565b634e487b7160e01b600052604160045260246000fd5b604051906000600354908160011c91600181168015610da0575b602084108114610d8c578386528592918115610d6d5750600114610d0d575b610d0b92500383610c8e565b565b506003600090815290917fc2575a0e9e593c00f959f8c92f12db2869c3395a3b0502d05e2516446f71f85b5b818310610d51575050906020610d0b92820101610cff565b6020919350806001915483858901015201910190918492610d39565b60209250610d0b94915060ff191682840152151560051b820101610cff565b634e487b7160e01b83526022600452602483fd5b92607f1692610ce0565b604051906000600454908160011c91600181168015610e4e575b602084108114610d8c578386528592918115610d6d5750600114610dee57610d0b92500383610c8e565b506004600090815290917f8a35acfbc15ff81a39ae7d344fd709f28e8600b4aa8c65c6b64bfe7fe36bd19b5b818310610e32575050906020610d0b92820101610cff565b6020919350806001915483858901015201910190918492610e1a565b92607f1692610dc4565b67ffffffffffffffff8111610cb05760051b60200190565b8051821015610c785760209160051b010190565b9190820391821161038a57565b6001600160a01b0316908115610f2a576001600160a01b03169182156103a0576000828152806020526040812054828110610f105791604082827fddf252ad1be2c89b69c2b068fc378daa952ba7f163c4a11628f55a4df523b3ef958760209652828652038282205586815280845220818154019055604051908152a3565b916064928463391434e360e21b8452600452602452604452fd5b634b637e8f60e11b600052600060045260246000fd5b6005546001600160a01b03163303610f5457565b63118cdaa760e01b6000523360045260246000fdfea26469706673582212202db923faf724d1f2bc3632a08aef615e0319a4adcf5f8f36fe97690b6b34dd8e64736f6c634300081a0033a264697066735822122040406b3ac5d0e19a309950dc0a96bc42e25a6fe0de591f541df09b2fc157463e64736f6c634300081a00336080604052346103a057604080519081016001600160401b038111828210176102ad576040908152601382527f556e6976657273616c204173736574204e465400000000000000000000000000602083015280519081016001600160401b038111828210176102ad576040526005815264155053919560da1b602082015281516001600160401b0381116102ad57600054600181811c91168015610396575b602082101461028d57601f8111610332575b50602092601f82116001146102ce57928192936000926102c3575b50508160011b916000199060031b1c1916176000555b80516001600160401b0381116102ad57600154600181811c911680156102a3575b602082101461028d57601f8111610228575b50602091601f82116001146101c4579181926000926101b9575b50508160011b916000199060031b1c1916176001555b33156101a35760068054336001600160a01b03198216811790925560405191906001600160a01b03167f8be0079c531659141344cd1fd0a4f28419497f9722a3daafe3b4186f6b6457e0600080a36000600755610ff890816103a68239f35b631e4fbdf760e01b600052600060045260246000fd5b01519050388061012e565b601f198216926001600052806000209160005b858110610210575083600195106101f7575b505050811b01600155610144565b015160001960f88460031b161c191690553880806101e9565b919260206001819286850151815501940192016101d7565b60016000527fb10e2d527612073b26eecdfd717e6a320cf44b4afac2b0732d9fcbe2b7fa0cf6601f830160051c81019160208410610283575b601f0160051c01905b8181106102775750610114565b6000815560010161026a565b9091508190610261565b634e487b7160e01b600052602260045260246000fd5b90607f1690610102565b634e487b7160e01b600052604160045260246000fd5b0151905038806100cb565b601f1982169360008052806000209160005b86811061031a5750836001959610610301575b505050811b016000556100e1565b015160001960f88460031b161c191690553880806102f3565b919260206001819286850151815501940192016102e0565b600080527f290decd9548b62a8d60345a988386fc84ba6bc95484008f6362f93160ef3e563601f830160051c8101916020841061038c575b601f0160051c01905b81811061038057506100b0565b60008155600101610373565b909150819061036a565b90607f169061009e565b600080fdfe608080604052600436101561001357600080fd5b60003560e01c90816301ffc9a714610abd5750806306fdde0314610a18578063081812fc146109da578063095ea7b3146108eb57806323b872dd146108d457806342842e0e146108aa5780636352211e1461087a57806370a0823114610824578063715018a6146107c757806375794a3c146107a95780638da5cb5b1461078057806395d89b41146106b2578063a22cb46514610611578063b88d4fde146105af578063c87b56dd1461047a578063d0def521146101cf578063e985e9c5146101745763f2fde38b146100e557600080fd5b3461016f57602036600319011261016f576100fe610b69565b610106610f99565b6001600160a01b0316801561015957600680546001600160a01b0319811683179091556001600160a01b03167f8be0079c531659141344cd1fd0a4f28419497f9722a3daafe3b4186f6b6457e0600080a3005b631e4fbdf760e01b600052600060045260246000fd5b600080fd5b3461016f57604036600319011261016f5761018d610b69565b610195610b7f565b9060018060a01b0316600052600560205260406000209060018060a01b0316600052602052602060ff604060002054166040519015158152f35b3461016f57604036600319011261016f576101e8610b69565b60243567ffffffffffffffff811161016f573660238201121561016f57610219903690602481600401359101610c0d565b610221610f99565b60075491600019831461046457600183016007556001600160a01b0316801561044e5760009083825260026020528360018060a01b0360408420541691827fddf252ad1be2c89b69c2b068fc378daa952ba7f163c4a11628f55a4df523b3ef8115159586610419575b83815260036020526040812060018154019055848152600260205260408120846bffffffffffffffffffffffff60a01b82541617905580a4506104035781600052600860205260406000209181519267ffffffffffffffff84116103ed576102f28154610c44565b93601f85116103a5575b602094508493601f8211600114610342579381929394600092610337575b50508160011b916000199060031b1c19161790555b604051908152f35b01519050858061031a565b601f1982169483600052806000209160005b87811061038e575083600195969710610375575b505050811b01905561032f565b015160001960f88460031b161c19169055858080610368565b919288600181928685015181550194019201610354565b816000526020600020601f820160051c810195602083106103e3575b601f0160051c01945b8581106103d757506102fc565b600081556001016103ca565b90955085906103c1565b634e487b7160e01b600052604160045260246000fd5b6339e3563760e11b600052600060045260246000fd5b600085815260046020526040902080546001600160a01b0319169055828152600360205260408120805460001901905561028a565b633250574960e11b600052600060045260246000fd5b634e487b7160e01b600052601160045260246000fd5b3461016f57602036600319011261016f576004356000818152600260205260409020546001600160a01b0316156105735760005260086020526040600020604051906000908054906104cb82610c44565b808552916001811690811561054c575060011461050b575b610507846104f381860382610bcf565b604051918291602083526020830190610b28565b0390f35b600090815260208120939250905b808210610532575090915081016020016104f3826104e3565b919260018160209254838588010152019101909291610519565b60ff191660208087019190915292151560051b850190920192506104f391508390506104e3565b60405162461bcd60e51b8152602060048201526014602482015273151bdad95b88191bd95cc81b9bdd08195e1a5cdd60621b6044820152606490fd5b3461016f57608036600319011261016f576105c8610b69565b6105d0610b7f565b6064359167ffffffffffffffff831161016f573660238401121561016f5761060561060f933690602481600401359101610c0d565b9160443591610e14565b005b3461016f57604036600319011261016f5761062a610b69565b6024359081151580920361016f576001600160a01b031690811561069d57336000526005602052604060002082600052602052604060002060ff1981541660ff83161790556040519081527f17307eab39ab6107e8899845ad3d59bd9653f200f220920489ca2b5937696c3160203392a3005b50630b61174360e31b60005260045260246000fd5b3461016f57600036600319011261016f5760405160006001546106d481610c44565b808452906001811690811561075c57506001146106fc575b610507836104f381850382610bcf565b91905060016000527fb10e2d527612073b26eecdfd717e6a320cf44b4afac2b0732d9fcbe2b7fa0cf6916000905b808210610742575090915081016020016104f36106ec565b91926001816020925483858801015201910190929161072a565b60ff191660208086019190915291151560051b840190910191506104f390506106ec565b3461016f57600036600319011261016f576006546040516001600160a01b039091168152602090f35b3461016f57600036600319011261016f576020600754604051908152f35b3461016f57600036600319011261016f576107e0610f99565b600680546001600160a01b031981169091556000906001600160a01b03167f8be0079c531659141344cd1fd0a4f28419497f9722a3daafe3b4186f6b6457e08280a3005b3461016f57602036600319011261016f576001600160a01b03610845610b69565b1680156108645760005260036020526020604060002054604051908152f35b6322718ad960e21b600052600060045260246000fd5b3461016f57602036600319011261016f576020610898600435610f62565b6040516001600160a01b039091168152f35b3461016f5761060f6108bb36610b95565b90604051926108cb602085610bcf565b60008452610e14565b3461016f5761060f6108e536610b95565b91610c7e565b3461016f57604036600319011261016f57610904610b69565b60243561091081610f62565b331515806109c7575b80610999575b6109845781906001600160a01b0384811691167f8c5be1e5ebec7d5bd14f71427d1e84f3dd0314c0f7b2291e5b200ac8c7c3b925600080a4600090815260046020526040902080546001600160a01b0319166001600160a01b03909216919091179055005b63a9fbf51f60e01b6000523360045260246000fd5b506001600160a01b038116600090815260056020908152604080832033845290915290205460ff161561091f565b506001600160a01b038116331415610919565b3461016f57602036600319011261016f576004356109f781610f62565b506000526004602052602060018060a01b0360406000205416604051908152f35b3461016f57600036600319011261016f5760405160008054610a3981610c44565b808452906001811690811561075c5750600114610a6057610507836104f381850382610bcf565b60008080527f290decd9548b62a8d60345a988386fc84ba6bc95484008f6362f93160ef3e563939250905b808210610aa3575090915081016020016104f36106ec565b919260018160209254838588010152019101909291610a8b565b3461016f57602036600319011261016f576004359063ffffffff60e01b821680920361016f576020916380ac58cd60e01b8114908115610b17575b8115610b06575b5015158152f35b6301ffc9a760e01b14905083610aff565b635b5e139f60e01b81149150610af8565b919082519283825260005b848110610b54575050826000602080949584010152601f8019910116010190565b80602080928401015182828601015201610b33565b600435906001600160a01b038216820361016f57565b602435906001600160a01b038216820361016f57565b606090600319011261016f576004356001600160a01b038116810361016f57906024356001600160a01b038116810361016f579060443590565b90601f8019910116810190811067ffffffffffffffff8211176103ed57604052565b67ffffffffffffffff81116103ed57601f01601f191660200190565b929192610c1982610bf1565b91610c276040519384610bcf565b82948184528183011161016f578281602093846000960137010152565b90600182811c92168015610c74575b6020831014610c5e57565b634e487b7160e01b600052602260045260246000fd5b91607f1691610c53565b6001600160a01b039091169190821561044e576000828152600260205260408120546001600160a01b0316938391859033151580610d7c575b507fddf252ad1be2c89b69c2b068fc378daa952ba7f163c4a11628f55a4df523b3ef9082610d47575b83815260036020526040812060018154019055848152600260205260408120846bffffffffffffffffffffffff60a01b82541617905580a46001600160a01b0316808303610d2d57505050565b6364283d7b60e01b60005260045260245260445260646000fd5b600085815260046020526040902080546001600160a01b03191690558281526003602052604081208054600019019055610ce0565b915091925080610dc5575b15610d96579084849238610cb7565b839085610daf57602491637e27328960e01b8252600452fd5b60449163177e802f60e01b825233600452602452fd5b503385148015610df3575b80610d875750838152600460205260408120546001600160a01b03163314610d87565b5084815260056020908152604080832033845290915281205460ff16610dd0565b9291610e21818386610c7e565b813b610e2e575b50505050565b604051630a85bd0160e11b81523360048201526001600160a01b0394851660248201526044810191909152608060648201529216919060209082908190610e79906084830190610b28565b03816000865af18091600091610f18575b5090610ee357503d15610edc573d610ea181610bf1565b90610eaf6040519283610bcf565b81523d6000602083013e5b80519081610ed75782633250574960e11b60005260045260246000fd5b602001fd5b6060610eba565b6001600160e01b03191663757a42ff60e11b01610f04575038808080610e28565b633250574960e11b60005260045260246000fd5b6020813d602011610f5a575b81610f3160209383610bcf565b81010312610f565751906001600160e01b031982168203610f53575038610e8a565b80fd5b5080fd5b3d9150610f24565b6000818152600260205260409020546001600160a01b0316908115610f85575090565b637e27328960e01b60005260045260246000fd5b6006546001600160a01b03163303610fad57565b63118cdaa760e01b6000523360045260246000fdfea26469706673582212209c145b140ee027dcb47c6561009505b78e6fd195bdeccbd7ba0b77d199c4486564736f6c634300081a0033",
  "linkReferences": {},
  "deployedLinkReferences": {}
}